:10000000F7C2000016C3000014C3000012C30000B2
:1000100010C300000EC300000C94110C0C94390C9A
:100020000C94610C0C94890C04C3000002C3000002
:1000300000C300000C9460140C94B10C0C94DE0C02
:100040000C940B0D0C94380D0C94650D0C94920DC2
:100050000C94BF0D0C94EC0D0C94190E0C94460EE0
:10006000E8C20000E6C20000E4C20000E2C20000F4
:100070000C94CA21DEC20000DCC20000DAC200001B
:10008000D8C20000D6C20000D4C20000D2C2000014
:10009000D0C20000CEC20000CCC20000CAC2000024
:1000A000C8C20000C6C20000C4C20000C2C2000034
:1000B000C0C20000BEC200000C9487140C9435101E
:1000C0000C9462100C948F100C94BC100C94E910DA
:1000D0000C9416110C9443110C9470110C949D11F6
:1000E0000C94CA11A6C20000A4C20000A2C2000063
:1000F000A0C200000C9469239CC200009AC20000B8
:1001000022C3000096C2000094C2000092C2000008
:1001100090C200008EC200008CC200008AC20000A3
:1001200088C2000086C2000084C2000082C20000B3
:1001300080C200000C94730E0C94A00E0C94CD0E93
:100140000C94FA0E0C94270F0C94540F0C94810FFE
:100150000C94AE0F0C94DB0F0C9408106AC20000D4
:100160000C94B82366C2000064C2000062C20000A2
:1001700060C200005EC200005CC200005AC2000003
:1001800058C2000056C2000054C2000052C2000013
:1001900050C200004EC200004CC200004AC2000023
:1001A00048C2000046C2000044C2000042C2000033
:1001B0000C94F7110C9424120C9451120C947E128E
:1001C0000C94AB120C94D81234C2000032C200005E
:1001D00030C200002EC200002CC200002AC2000063
:1001E00028C2000026C2000024C2000022C2000073
:1001F00020C200000C942B1C0C94471D781566152A
:1002000069156C156F1572157515F020F52008210C
:10021000222148214E2161217A2141737365727434
:10022000696F6E2027257327206661696C656420DD
:1002300061742025733A25640D0A00417373657259
:1002400074696F6E206661696C65643A2025732558
:100250007300417373657274696F6E20272573276D
:10026000206661696C65642061742025733A256499
:100270000D0A00417373657274696F6E206661695F
:100280006C65643A2025732573004173736572743D
:10029000696F6E2027257327206661696C6564206D
:1002A00061742025733A25640D0A004173736572E9
:1002B00074696F6E206661696C65643A20257325E8
:1002C0007300546573742027257327206661696C59
:1002D00065642061742025733A25753A0D0A09007A
:1002E000417373657274696F6E20272573272066CA
:1002F00061696C65642061742025733A25640D0A78
:1003000000417373657274696F6E206661696C6514
:10031000643A202573257300417373657274696FA5
:100320006E2027257327206661696C6564206174DF
:100330002025733A25640D0A004173736572746950
:100340006F6E206661696C65643A202573257300C1
:10035000417373657274696F6E2027257327206659
:1003600061696C65642061742025733A25640D0A07
:1003700000417373657274696F6E206661696C65A4
:10038000643A202573257300417373657274696F35
:100390006E2027257327206661696C65642061746F
:1003A0002025733A25640D0A0041737365727469E0
:1003B0006F6E206661696C65643A20257325730051
:1003C000417373657274696F6E20272573272066E9
:1003D00061696C65642061742025733A25640D0A97
:1003E00000417373657274696F6E206661696C6534
:1003F000643A202573257300417373657274696FC5
:100400006E2027257327206661696C6564206174FE
:100410002025733A25640D0A00417373657274696F
:100420006F6E206661696C65643A202573257300E0
:10043000417373657274696F6E2027257327206678
:1004400061696C65642061742025733A25640D0A26
:1004500000417373657274696F6E206661696C65C3
:10046000643A202573257300417373657274696F54
:100470006E2027257327206661696C65642061748E
:100480002025733A25640D0A0041737365727469FF
:100490006F6E206661696C65643A20257325730070
:1004A000417373657274696F6E2027257327206608
:1004B00061696C65642061742025733A25640D0AB6
:1004C00000417373657274696F6E206661696C6553
:1004D000643A202573257300417373657274696FE4
:1004E0006E2027257327206661696C65642061741E
:1004F0002025733A25640D0A00417373657274698F
:100500006F6E206661696C65643A202573257300FF
:10051000417373657274696F6E2027257327206697
:1005200061696C65642061742025733A25640D0A45
:1005300000417373657274696F6E206661696C65E2
:10054000643A202573257300417373657274696F73
:100550006E2027257327206661696C6564206174AD
:100560002025733A25640D0A00417373657274691E
:100570006F6E206661696C65643A2025732573008F
:10058000417373657274696F6E2027257327206627
:1005900061696C65642061742025733A25640D0AD5
:1005A00000417373657274696F6E206661696C6572
:1005B000643A202573257300417373657274696F03
:1005C0006E2027257327206661696C65642061743D
:1005D0002025733A25640D0A0041737365727469AE
:1005E0006F6E206661696C65643A2025732573001F
:1005F00011241FBECFEFCDBFDFE5DEBF00E00CBF93
:1006000012E2A0E0B0E2EEECF4E500E00BBF02C0C5
:1006100007900D92A23AB107D9F72BE2A2EAB2E213
:1006200001C01D92A532B207E1F70E9410230C947D
:10063000652AE6CCCF92DF92FF920F931F93CF9360
:10064000DF93C0EAD6E080E98A8380E68983E0E828
:10065000F6E080E4828390EA91830F2EF0E4CF2EBF
:10066000F6E0DF2EF02DD60112968C93129781EAD8
:1006700011968C9380E696E064E0DC0112966C9310
:1006800012972AE011962C93119770E212967C93A0
:1006900028E0D60112962C93129750E111965C93A4
:1006A00011976283218312966C93129742E0119600
:1006B0004C9331E03283DC0111965C9311976A838D
:1006C000498311963C93518341832983398300E008
:1006D00016E00F2EF9E9FF2EF02DD8011296FC92AC
:1006E000129766E611966C9300E216E0D801129616
:1006F000FC92129711966C937D83D60115963C93CC
:10070000159715965C931597258315964C93DC01E8
:1007100015965C9315974D8315963C9315975583C5
:1007200045832D833D8330E8358315962C93F60160
:1007300035830E949223DF91CF911F910F91FF90FB
:10074000DF90CF9008951F920F920FB60F92112451
:100750000BB60F922F933F934F935F936F937F93BB
:100760008F939F93AF93BF93EF93FF93809168060E
:1007700085FF0EC081E08093A2220E94B422609384
:1007800078267093792680937A2690937B2602C0F0
:100790001092A222FF91EF91BF91AF919F918F9103
:1007A0007F916F915F914F913F912F910F900BBE71
:1007B0000F900FBE0F901F90189581E080937E26BA
:1007C00010927C26089510927E260895CF93DF9391
:1007D0001F921F92CDB7DEB780E0E0E7F0E004C0E3
:1007E0009FEF90838F5F31968730D0F38FB78A83E6
:1007F000F8949A81E0E5F0E08081826080839FBF79
:100800009091510081E091FF80E08823C9F361E07D
:1008100080E490E09ED78091DA239091DB230097CB
:1008200001F1209140002130A1F12FE532E23F9308
:100830002F9322ED30E23F932F932BE332E03F934F
:100840002F931F9223E92F9323EF30E23F932F93AF
:100850001F9221E02F939F938F9343D7CDBFDEBF8D
:1008600018C0809140008130A1F01F9283E98F93DE
:1008700083EF90E29F938F9382ED90E29F938F930B
:100880008AE192E09F938F930E94C527CDBFDEBF80
:10089000FFCF8FB78983F8949981E0E5F0E08081FC
:1008A0008E7F80839FBF0F900F90DF91CF9108952F
:1008B000CF93DF931F92CDB7DEB79FB79983F8949C
:1008C0009981E82FF0E0E059FF4F6095808168231F
:1008D00060839FBF0F90DF91CF91089580E00895CE
:1008E00080E0089580E00895FDDF90918D26292F06
:1008F000992344F5392F3076303221F530918E2608
:10090000313201F52091932630919426273031051C
:1009100009F048C090E09C01220F331F220F331FC3
:10092000220F331FA901481B590BCA018A539C4D42
:10093000EDE8F6E28087918787E090E082879387F1
:1009400081E00895222384F19076903279F5909198
:100950008E26903221F0923259F581E0089520914F
:100960009326309194262730310521F5EDE8F6E203
:100970002CED34E02487358790E09C01220F331F53
:10098000220F331F220F331FA901481B590BCA0125
:100990008A539C4D8087918787E090E08287938778
:1009A00081E0089580E0089580E0089580E0089552
:1009B00080E0089580E0089508951092B823109281
:1009C000C4231092C523EAEBF3E281EA808380E23C
:1009D0008183128213821482158282E090E08683E2
:1009E000978310861186E6ECF3E280E092ECA1E0BA
:1009F000B0E080839183A283B3831482158288E060
:100A0000868380E0DADE882329F09091B8239F5F07
:100A10009093B8230895FF920F931F93CF93DF9382
:100A20001F92CDB7DEB78091A62281119FC00E9490
:100A3000A819882351F00091A7221091A8220E94A2
:100A4000B5190817190759F491C00091A722109100
:100A5000A8220E94B0190817190709F487C08FB798
:100A60008983F89419810091A922E02FF0E0EE0F1C
:100A7000FF1FE655FD4D80819181892B09F58091FD
:100A8000A3229091A42201968093A3229093A42262
:100A90000E94A819811107C08091A3229091A422DD
:100AA0008436910558F00E94A819882349F0809156
:100AB000A3229091A4228032934010F41FBF56C00D
:100AC0001092A3221092A4228091A522811106C027
:100AD00081E0011180E08093A92204C081E001112E
:100AE00080E0082F81E08093A6221FBF10E0F8016C
:100AF000EE0FFF1FE655FD4D80819181FF24F39499
:100B00008034910509F4F12C8034910591F00E9414
:100B1000A819882339F00E94B5198093A7229093D1
:100B2000A8220BC00E94B0198093A7229093A822FC
:100B300004C01092A7221092A822A8010024569562
:100B400047950794569547950794542F402D425545
:100B50005D4D000F111FF801E655FD4D20813181DB
:100B60000DEB15E06F2D81E80E94F31A0F90DF91D5
:100B7000CF911F910F91FF900895811115C0209181
:100B8000A92281E090E0222311F080E090E0880F1C
:100B9000991FFC01E655FD4D108211821092A5228D
:100BA0001092A62280E037CF089580E034CF0895D8
:100BB0008091DA239091DB23009719F12091B823DB
:100BC00021113BC02FE532E23F932F9329E431E21C
:100BD0003F932F932BEA32E03F932F9321E02F9303
:100BE0003BE63F9346E651E25F934F931F922F936C
:100BF0009F938F9376D58DB79EB70E968DBF9EBF70
:100C00001CC08091B823811118C081E08F938BE6BE
:100C10008F9386E691E29F938F9389E491E29F936D
:100C20008F938AE892E09F938F930E94C5278DB798
:100C30009EB708968DBF9EBFFFCF8091B82381508D
:100C40008093B82308958091DA239091DB23009755
:100C500019F12091B72321113BC02FE532E23F93D8
:100C60002F9320EA31E23F932F9323E732E03F9323
:100C70002F9321E02F9333E73F9346E651E25F93B2
:100C80004F931F922F939F938F932BD58DB79EB722
:100C90000E968DBF9EBF1CC08091B723811118C0D6
:100CA00081E08F9383E78F9386E691E29F938F9302
:100CB00080EA91E29F938F9382E592E09F938F93D6
:100CC0000E94C5278DB79EB708968DBF9EBFFFCFE8
:100CD0008091B72381508093B7238091B72373DD30
:100CE0001092B6230895CF93DF931F92CDB7DEB74E
:100CF0008FB78983F894298140912F235091302315
:100D0000E0913123F0E0EE0FFF1FEE5CFC4D80819F
:100D10009181841B950B2FBF0F90DF91CF91089588
:100D2000E2DF21E0892B09F420E0822F08950F9360
:100D30001F93CF93DF931F92CDB7DEB78FB7898311
:100D4000F89499812091312380912E23811110C034
:100D500060912F2370913023022F10E0F801EE0FE5
:100D6000FF1FEE5CFC4D408151816417750718F43C
:100D70009FBF80E023C010922F231092302381E088
:100D8000211180E08093312381E080932E239FBF47
:100D900080E0C6DFA8010024569547950794569534
:100DA00047950794542F402D4A5C5C4D06E117E0AF
:100DB00020E430E061E082E00E94F31A0F90DF91BE
:100DC000CF911F910F9108951092B7231092A622F0
:100DD0001092A5221092A922EAEAF2E21082118270
:100DE000128213821092A7221092A82280E013DEB2
:100DF00010922E2310923123E2E3F3E2108211824B
:100E00001282138210922F231092302380E08FDF02
:100E1000882359F09091B7239F5F9093B7239091C7
:100E2000B723913011F49093B62308950F931F9335
:100E3000811129C080913123E1E08111E0E0842F0C
:100E400061157105A9F44E2F50E000245695479581
:100E50000794569547950794542F402D4A5C5C4D56
:100E600006E117E020E430E061E00E94F31A0BC0D5
:100E7000F0E0EE0FFF1FEE5CFC4D6083718310927B
:100E80002E2380E054DF1F910F9108958DEB91E2A6
:100E90000895E091D223F091D3230190F081E02DC9
:100EA000828193818E0F9F1F08951F93CF93DF93AD
:100EB000EC01162FEEDF9C018881FE01E80FF11D89
:100EC00008C09181943059F0911761F09081E90F39
:100ED000F11DE217F307A8F380E090E005C080E081
:100EE00090E002C08E2F9F2FDF91CF911F91089528
:100EF000CF93DF939091D423992361F1E091D22392
:100F0000F091D3230190F081E02D9481891720F591
:100F1000D62FC82FE093D023F093D123BADF9C01C2
:100F200010C09181943031F48281C81303C0838151
:100F30008D17A1F09081E90FF11DE093D023F0937C
:100F4000D123E091D023F091D123E217F30748F3A6
:100F500080E005C080E003C080E001C081E0DF9157
:100F6000CF9108958091932690919426892B89F4AE
:100F700080918F2690919026019769F48091D823D3
:100F80009091D9238D7F8093D8239093D92381E0AA
:100F9000089580E0089580E0089580E008958091AC
:100FA000932690919426892B41F48AEC99E08093C2
:100FB000992690939A2681E0089580E008950F93F2
:100FC0001F93CF93DF938091D423882399F1C0910D
:100FD0009126D0919226E091D223F091D3230190D3
:100FE000F081E02D8481C81738F560E08C2F80DF18
:100FF000882319F1E091D223F091D3238281938148
:10100000FE01FF27EE0FFF1FE80FF91F008111817E
:10101000D8011696ED91FC9117971995682F8C2F92
:1010200067DF882351F0D8011496ED91FC91159754
:10103000199503C080E001C080E0DF91CF911F913E
:101040000F9108950F931F93CF938091D4238823FA
:1010500061F1C0E01EC082819381EC2FF0E0EE0FC1
:10106000FF1FE80FF91F00811181D8011696ED913D
:10107000FC9117971995682F8C2F3ADF8823B1F0D0
:10108000D8011496ED91FC911597199581110EC018
:10109000CF5FE091D223F091D323A081B181149648
:1010A0008C91C817C0F280E001C080E0CF911F9101
:1010B0000F910895EF92FF921F93CF93DF93C82F64
:1010C00060E016DF182F882371F1E091D223F091B0
:1010D000D32382819381EC2FF0E0EE0FFF1FE80F06
:1010E000F91FE080F180D7011696ED91FC911797DA
:1010F0001995682F8C2FFCDE182F8823A1F0C09142
:10110000D023D091D12365E0CE01CFDEEC01892B35
:1011100021F08A810E949A1CF6CFD7011296ED9198
:10112000FC9113971995812FDF91CF911F91FF901B
:10113000EF9008958091932690919426029741F420
:1011400062E070E088ED93E20E94B81981E00895B2
:1011500080E00895CF93DF9380918F269091902621
:1011600099278130910539F050F08230910599F03E
:10117000039769F038C061E1CBEAD0E20FC064E0C8
:1011800070E08EEB90E20E94B81960E007C07EDE4E
:10119000EC0167E003C06EE0CCE9D0E2611113C05E
:1011A00081E022C0822F90E0FE01E80FF91F40810C
:1011B00050E0FC013196EE0FFF1FE858FF4D4083D1
:1011C00051832F5F01C020E0261760F370E06F5F4E
:1011D0007F4F660F6093782070E088E790E20E946E
:1011E000B81981E001C080E0DF91CF91089520918E
:1011F0008F2630919026832F992782309105A1F078
:1012000018F4019739F04EC083309105C9F10F975A
:1012100059F148C08091142090911520FC01608103
:1012200070E00E94B8192FC0E0911420F0911520B1
:1012300081892817C8F5E0911620F09117203327EF
:10124000220F331F220F331FE20FF31F8081918182
:10125000FC01628173810E94B819E0919526F0919A
:10126000962682E081830FC08091182090911920EA
:101270000097E1F0FC01628173810E94B81903C0FC
:1012800069DF8823B1F0EDE8F6E286819781228557
:1012900033858217930760F480939726909398265E
:1012A00081E0089580E0089580E0089580E0089549
:1012B00081E008958091932690919426019741F4BE
:1012C00061E070E084ED93E20E94B81981E0089536
:1012D00080E008950F931F93CF9380919326909170
:1012E00094260197A1F58091D423882391F1009150
:1012F000912610919226E091D223F091D323019070
:10130000F081E02D8481081730F560E0802FF0DD5A
:10131000C82F882309F1E091D223F091D3230280D2
:10132000F381E02D1127000F111FE00FF11F019035
:10133000F081E02D0680F781E02D19958093D6236A
:1013400061E070E086ED93E20E94B81905C0C0E04C
:1013500003C0C0E001C0C0E08C2FCF911F910F915E
:1013600008958091932690919426029789F4809114
:1013700091260E94381A90E08093CE239093CF2339
:1013800062E070E08EEC93E20E94B81981E008956B
:1013900080E0089580918F268F770C94AA19089584
:1013A0001F93CF93DF93182FA3DD882331F1C091D2
:1013B000D023D091D12365E0CE0177DDEC01892BDC
:1013C00049F04C815D816B818A810E94C91981112C
:1013D000F2CF13C0E091D223F091D3238281938185
:1013E000E12FF0E0EE0FFF1FE80FF91F0190F081F1
:1013F000E02D0190F081E02D1995DF91CF911F91A3
:101400000895CF93DF938091932690919426892B12
:1014100081F48091D423882371F0EDE8F6E2C48151
:10142000D2818C2F47DE882339F06D2F8C2FB8DFC7
:1014300003C080E001C080E0DF91CF9108958091EA
:10144000932690919426892B59F480918F26909120
:101450009026892B39F4809191260C948D1A089549
:1014600080E0089580E00895CF93DF9380919326E4
:1014700090919426892B79F480918F2690919026D3
:10148000892B59F4CDE8D6E28C810E94B71B8C8160
:101490000E94EF1C03C080E001C080E0DF91CF918B
:1014A0000895CF938091D423811105C00FC08C2F54
:1014B00001DECF5F01C0C0E0E091D223F091D323E1
:1014C0000190F081E02D8481C81788F31092D42315
:1014D00081E090E08093D8239093D923CF91089511
:1014E000CF938091932690919426892B09F040C048
:1014F0000E94AD19882309F43DC020918F263091B8
:1015000090263327E0911420F0911520818990E0F6
:101510008217930788F1C5DF90918F269093D4238B
:10152000992361F12091162030911720892F90E0A6
:101530008150904C880F991F880F991F820F931F1D
:101540008093D2239093D323C0E006C060E08C2F19
:1015500027DF8823A1F0CF5FE091D223F091D3233E
:101560000190F081E02D8481C81780F381E007C0ED
:1015700080E005C080E003C080E001C081E0CF9141
:10158000089580918D2688233CF5209193263091F3
:101590009426232B09F44CC08F7171F490918E2600
:1015A000963031F0983031F0911106C0C3CD0895D6
:1015B0001ECE08957FCE0895813031F490918E260D
:1015C0009A3011F487CE08958230A1F580918E264D
:1015D000811132C0C6CE08958F71A9F490918E26E4
:1015E000933069F018F4913041F00DC0953019F046
:1015F000993039F008C0D3CC0895B4CC0895CDCC3F
:1016000008956ECF0895813031F490918E269B30ED
:1016100011F4F7CE0895823089F480918E268130BE
:1016200019F0833019F00CC00ACF08951DCF08952A
:1016300080E0089580E0089580E0089580E00895B6
:1016400080E00895CF938091D423811114C01EC0EF
:1016500082819381EC2FF0E0EE0FFF1FE80FF91F5E
:101660000190F081E02D0084F185E02D309709F0A4
:101670001995CF5F01C0C0E0E091D223F091D32350
:10168000A081B18114968C91C81710F3CF91089561
:10169000EDE8F6E2128613861486158616861786FE
:1016A0008081882334F42091932630919426232B33
:1016B000A1F0807619F465DF811112C080918D262A
:1016C0008F71813019F47BDC81110AC080918D26E5
:1016D0008F71823021F4B6CC089580E0089580E0C7
:1016E0000895CF93DF93CDB7DEB7EE81FF818A8572
:1016F0009B852C853D853F932F939F938F93878167
:101700008F9386818F9382EC92E09F938F930E94B8
:10171000C5270FE11BE2AE01405F5F4F6E857F85FD
:10172000F801828193810E94EC27F8016281738124
:101730008DE090E00E948927F801628173818AE040
:1017400090E00E948927688579858CED93E20E945C
:101750005C271BBEFC0128ED24BF60830895682F21
:1017600070E0FB017196E295F295F07FFE27E07F35
:10177000FE27A0E0B1E014969C91149713964C912B
:1017800021E030E0D901082E02C0AA0FBB1F0A9445
:10179000E2F76C5F7F4F062E02C0220F331F0A94C0
:1017A000E2F72A2B422350E0DA01062E02C0B5955B
:1017B000A7950A94E2F7A0FD1CC0082E02C055951B
:1017C00047950A94E2F740FD16C0292330E0A901AD
:1017D00002C0559547956A95E2F740FD0EC0082E68
:1017E00002C0359527950A94E2F720FF08C021E052
:1017F00007C024E005C023E003C022E001C020E0D0
:10180000918190639183E82FF0E0EE0FFF1FEB577B
:10181000F94D0190F081E02D309711F0822F19954C
:1018200008951F920F920FB60F9211240BB60F92CC
:101830002F933F934F935F936F937F938F939F93D8
:10184000AF93BF93EF93FF9380E089DFFF91EF9118
:10185000BF91AF919F918F917F916F915F914F91C8
:101860003F912F910F900BBE0F900FBE0F901F90C6
:1018700018951F920F920FB60F9211240BB60F926C
:101880002F933F934F935F936F937F938F939F9388
:10189000AF93BF93EF93FF9381E061DFFF91EF91EF
:1018A000BF91AF919F918F917F916F915F914F9178
:1018B0003F912F910F900BBE0F900FBE0F901F9076
:1018C00018951F920F920FB60F9211240BB60F921C
:1018D0002F933F934F935F936F937F938F939F9338
:1018E000AF93BF93EF93FF9382E039DFFF91EF91C6
:1018F000BF91AF919F918F917F916F915F914F9128
:101900003F912F910F900BBE0F900FBE0F901F9025
:1019100018951F920F920FB60F9211240BB60F92CB
:101920002F933F934F935F936F937F938F939F93E7
:10193000AF93BF93EF93FF9383E011DFFF91EF919C
:10194000BF91AF919F918F917F916F915F914F91D7
:101950003F912F910F900BBE0F900FBE0F901F90D5
:1019600018951F920F920FB60F9211240BB60F927B
:101970002F933F934F935F936F937F938F939F9397
:10198000AF93BF93EF93FF93E0913A24F0913B2400
:10199000309709F01995FF91EF91BF91AF919F9109
:1019A0008F917F916F915F914F913F912F910F9008
:1019B0000BBE0F900FBE0F901F9018951F920F92A5
:1019C0000FB60F9211240BB60F922F933F934F93A4
:1019D0005F936F937F938F939F93AF93BF93EF9397
:1019E000FF93E0913824F0913924309709F019954C
:1019F000FF91EF91BF91AF919F918F917F916F91E7
:101A00005F914F913F912F910F900BBE0F900FBEA2
:101A10000F901F9018951F920F920FB60F921124DE
:101A20000BB60F922F933F934F935F936F937F93D8
:101A30008F939F93AF93BF93EF93FF93E0913624DF
:101A4000F0913724309709F01995FF91EF91BF91EC
:101A5000AF919F918F917F916F915F914F913F9146
:101A60002F910F900BBE0F900FBE0F901F901895E7
:101A70001F920F920FB60F9211240BB60F922F9355
:101A80003F934F935F936F937F938F939F93AF9306
:101A9000BF93EF93FF93E0913424F0913524309776
:101AA00009F01995FF91EF91BF91AF919F918F919F
:101AB0007F916F915F914F913F912F910F900BBE4E
:101AC0000F900FBE0F901F9018951F920F920FB698
:101AD0000F9211240BB60F922F933F934F935F9366
:101AE0006F937F938F939F93AF93BF93EF93FF93E6
:101AF000E0913224F0913324309709F01995FF9149
:101B0000EF91BF91AF919F918F917F916F915F9175
:101B10004F913F912F910F900BBE0F900FBE0F90E2
:101B20001F9018951F920F920FB60F9211240BB6AB
:101B30000F922F933F934F935F936F937F938F9366
:101B40009F93AF93BF93EF93FF93E0913024F09175
:101B50003124309709F01995FF91EF91BF91AF9122
:101B60009F918F917F916F915F914F913F912F91B5
:101B70000F900BBE0F900FBE0F901F9018951F92E5
:101B80000F920FB60F9211240BB60F922F933F9323
:101B90004F935F936F937F938F939F93AF93BF9375
:101BA000EF93FF93E0912E24F0912F24309709F0CA
:101BB0001995FF91EF91BF91AF919F918F917F9177
:101BC0006F915F914F913F912F910F900BBE0F90AE
:101BD0000FBE0F901F9018951F920F920FB60F9285
:101BE00011240BB60F922F933F934F935F936F93F4
:101BF0007F938F939F93AF93BF93EF93FF93E09166
:101C00002C24F0912D24309709F01995FF91EF9134
:101C1000BF91AF919F918F917F916F915F914F9104
:101C20003F912F910F900BBE0F900FBE0F901F9002
:101C300018951F920F920FB60F9211240BB60F92A8
:101C40002F933F934F935F936F937F938F939F93C4
:101C5000AF93BF93EF93FF93E0912A24F0912B244D
:101C6000309709F01995FF91EF91BF91AF919F9136
:101C70008F917F916F915F914F913F912F910F9035
:101C80000BBE0F900FBE0F901F9018951F920F92D2
:101C90000FB60F9211240BB60F922F933F934F93D1
:101CA0005F936F937F938F939F93AF93BF93EF93C4
:101CB000FF93E0912824F0912924309709F0199599
:101CC000FF91EF91BF91AF919F918F917F916F9114
:101CD0005F914F913F912F910F900BBE0F900FBED0
:101CE0000F901F9018951F920F920FB60F9211240C
:101CF0000BB60F922F933F934F935F936F937F9306
:101D00008F939F93AF93BF93EF93FF93E09126241C
:101D1000F0912724309709F01995FF91EF91BF9129
:101D2000AF919F918F917F916F915F914F913F9173
:101D30002F910F900BBE0F900FBE0F901F90189514
:101D40001F920F920FB60F9211240BB60F922F9382
:101D50003F934F935F936F937F938F939F93AF9333
:101D6000BF93EF93FF93E0912424F09125243097C3
:101D700009F01995FF91EF91BF91AF919F918F91CC
:101D80007F916F915F914F913F912F910F900BBE7B
:101D90000F900FBE0F901F9018951F920F920FB6C5
:101DA0000F9211240BB60F922F933F934F935F9393
:101DB0006F937F938F939F93AF93BF93EF93FF9313
:101DC000E0912224F0912324309709F01995FF9196
:101DD000EF91BF91AF919F918F917F916F915F91A3
:101DE0004F913F912F910F900BBE0F900FBE0F9010
:101DF0001F9018951F920F920FB60F9211240BB6D9
:101E00000F922F933F934F935F936F937F938F9393
:101E10009F93AF93BF93EF93FF93E0912024F091B2
:101E20002124309709F01995FF91EF91BF91AF915F
:101E30009F918F917F916F915F914F913F912F91E2
:101E40000F900BBE0F900FBE0F901F9018951F9212
:101E50000F920FB60F9211240BB60F922F933F9350
:101E60004F935F936F937F938F939F93AF93BF93A2
:101E7000EF93FF93E0911E24F0911F24309709F017
:101E80001995FF91EF91BF91AF919F918F917F91A4
:101E90006F915F914F913F912F910F900BBE0F90DB
:101EA0000FBE0F901F9018951F920F920FB60F92B2
:101EB00011240BB60F922F933F934F935F936F9321
:101EC0007F938F939F93AF93BF93EF93FF93E09193
:101ED0001C24F0911D24309709F01995FF91EF9182
:101EE000BF91AF919F918F917F916F915F914F9132
:101EF0003F912F910F900BBE0F900FBE0F901F9030
:101F000018951F920F920FB60F9211240BB60F92D5
:101F10002F933F934F935F936F937F938F939F93F1
:101F2000AF93BF93EF93FF93E0911A24F0911B249A
:101F3000309709F01995FF91EF91BF91AF919F9163
:101F40008F917F916F915F914F913F912F910F9062
:101F50000BBE0F900FBE0F901F9018951F920F92FF
:101F60000FB60F9211240BB60F922F933F934F93FE
:101F70005F936F937F938F939F93AF93BF93EF93F1
:101F8000FF93E0911824F0911924309709F01995E6
:101F9000FF91EF91BF91AF919F918F917F916F9141
:101FA0005F914F913F912F910F900BBE0F900FBEFD
:101FB0000F901F9018951F920F920FB60F92112439
:101FC0000BB60F922F933F934F935F936F937F9333
:101FD0008F939F93AF93BF93EF93FF93E09116245A
:101FE000F0911724309709F01995FF91EF91BF9167
:101FF000AF919F918F917F916F915F914F913F91A1
:102000002F910F900BBE0F900FBE0F901F90189541
:102010001F920F920FB60F9211240BB60F922F93AF
:102020003F934F935F936F937F938F939F93AF9360
:10203000BF93EF93FF93E0911424F0911524309710
:1020400009F01995FF91EF91BF91AF919F918F91F9
:102050007F916F915F914F913F912F910F900BBEA8
:102060000F900FBE0F901F9018951F920F920FB6F2
:102070000F9211240BB60F922F933F934F935F93C0
:102080006F937F938F939F93AF93BF93EF93FF9340
:10209000E0911224F0911324309709F01995FF91E3
:1020A000EF91BF91AF919F918F917F916F915F91D0
:1020B0004F913F912F910F900BBE0F900FBE0F903D
:1020C0001F9018951F920F920FB60F9211240BB606
:1020D0000F922F933F934F935F936F937F938F93C1
:1020E0009F93AF93BF93EF93FF93E0911024F091F0
:1020F0001124309709F01995FF91EF91BF91AF919D
:102100009F918F917F916F915F914F913F912F910F
:102110000F900BBE0F900FBE0F901F9018951F923F
:102120000F920FB60F9211240BB60F922F933F937D
:102130004F935F936F937F938F939F93AF93BF93CF
:10214000EF93FF93E0910E24F0910F24309709F064
:102150001995FF91EF91BF91AF919F918F917F91D1
:102160006F915F914F913F912F910F900BBE0F9008
:102170000FBE0F901F9018951F920F920FB60F92DF
:1021800011240BB60F922F933F934F935F936F934E
:102190007F938F939F93AF93BF93EF93FF93E091C0
:1021A0000C24F0910D24309709F01995FF91EF91CF
:1021B000BF91AF919F918F917F916F915F914F915F
:1021C0003F912F910F900BBE0F900FBE0F901F905D
:1021D00018951F920F920FB60F9211240BB60F9203
:1021E0002F933F934F935F936F937F938F939F931F
:1021F000AF93BF93EF93FF93E0910A24F0910B24E8
:10220000309709F01995FF91EF91BF91AF919F9190
:102210008F917F916F915F914F913F912F910F908F
:102220000BBE0F900FBE0F901F9018951F920F922C
:102230000FB60F9211240BB60F922F933F934F932B
:102240005F936F937F938F939F93AF93BF93EF931E
:10225000FF93E0910824F0910924309709F0199533
:10226000FF91EF91BF91AF919F918F917F916F916E
:102270005F914F913F912F910F900BBE0F900FBE2A
:102280000F901F9018951F920F920FB60F92112466
:102290000BB60F922F933F934F935F936F937F9360
:1022A0008F939F93AF93BF93EF93FF93E091062497
:1022B000F0910724309709F01995FF91EF91BF91A4
:1022C000AF919F918F917F916F915F914F913F91CE
:1022D0002F910F900BBE0F900FBE0F901F9018956F
:1022E0001F920F920FB60F9211240BB60F922F93DD
:1022F0003F934F935F936F937F938F939F93AF938E
:10230000BF93EF93FF93E0910424F091052430975D
:1023100009F01995FF91EF91BF91AF919F918F9126
:102320007F916F915F914F913F912F910F900BBED5
:102330000F900FBE0F901F9018951F920F920FB61F
:102340000F9211240BB60F922F933F934F935F93ED
:102350006F937F938F939F93AF93BF93EF93FF936D
:10236000E0910224F0910324309709F01995FF9130
:10237000EF91BF91AF919F918F917F916F915F91FD
:102380004F913F912F910F900BBE0F900FBE0F906A
:102390001F9018951F920F920FB60F9211240BB633
:1023A0000F922F933F934F935F936F937F938F93EE
:1023B0009F93AF93BF93EF93FF93E0910024F0912D
:1023C0000124309709F01995FF91EF91BF91AF91DA
:1023D0009F918F917F916F915F914F913F912F913D
:1023E0000F900BBE0F900FBE0F901F9018951F926D
:1023F0000F920FB60F9211240BB60F922F933F93AB
:102400004F935F936F937F938F939F93AF93BF93FC
:10241000EF93FF93E091FE23F091FF23309709F0B3
:102420001995FF91EF91BF91AF919F918F917F91FE
:102430006F915F914F913F912F910F900BBE0F9035
:102440000FBE0F901F9018951F920F920FB60F920C
:1024500011240BB60F922F933F934F935F936F937B
:102460007F938F939F93AF93BF93EF93FF93E091ED
:10247000FC23F091FD23309709F01995FF91EF911E
:10248000BF91AF919F918F917F916F915F914F918C
:102490003F912F910F900BBE0F900FBE0F901F908A
:1024A00018951F920F920FB60F9211240BB60F9230
:1024B0002F933F934F935F936F937F938F939F934C
:1024C000AF93BF93EF93FF93E091FA23F091FB2337
:1024D000309709F01995FF91EF91BF91AF919F91BE
:1024E0008F917F916F915F914F913F912F910F90BD
:1024F0000BBE0F900FBE0F901F9018951F920F925A
:102500000FB60F9211240BB60F922F933F934F9358
:102510005F936F937F938F939F93AF93BF93EF934B
:10252000FF93E091F823F091F923309709F0199582
:10253000FF91EF91BF91AF919F918F917F916F919B
:102540005F914F913F912F910F900BBE0F900FBE57
:102550000F901F9018951F920F920FB60F92112493
:102560000BB60F922F933F934F935F936F937F938D
:102570008F939F93AF93BF93EF93FF93E091F623D5
:10258000F091F723309709F01995FF91EF91BF91E2
:10259000AF919F918F917F916F915F914F913F91FB
:1025A0002F910F900BBE0F900FBE0F901F9018959C
:1025B0001F920F920FB60F9211240BB60F922F930A
:1025C0003F934F935F936F937F938F939F93AF93BB
:1025D000BF93EF93FF93E091F423F091F5233097AD
:1025E00009F01995FF91EF91BF91AF919F918F9154
:1025F0007F916F915F914F913F912F910F900BBE03
:102600000F900FBE0F901F9018951F93CF93DF93DD
:102610001F921F92CDB7DEB72FB72A83F8941A8185
:10262000282F392F211588E0380749F461E083E02D
:102630000E94580464E083E00E9458044FC0203494
:1026400088E0380749F462E083E00E94580464E0BF
:1026500083E00E94580442C0211589E0380749F4FC
:1026600061E084E00E94580464E084E00E94580421
:1026700035C0203489E0380749F462E084E00E94E4
:10268000580464E084E00E94580428C021158AE0C0
:10269000380749F461E085E00E94580464E085E071
:1026A0000E9458041BC020348AE0380749F462E0D5
:1026B00085E00E94580464E085E00E9458040EC042
:1026C00021153B4049F461E086E00E94580464E033
:1026D00086E00E94580402C01FBF10C0809180266F
:1026E0008F3F09F4FFCF8FB78983F8949981EFE783
:1026F000F6E281818F5F81839FBF1FBF0F900F9094
:10270000DF91CF911F910895811528E0920729F458
:1027100060933A2470933B240895803428E0920714
:1027200029F460932E2470932F240895811529E0B5
:10273000920729F460932624709327240895803407
:1027400029E0920729F460931A2470931B240895BA
:1027500081152AE0920729F46093122470931324C0
:10276000089580342AE0920729F460930624709338
:102770000724089581159B4021F46093FE237093F4
:10278000FF230895CF93DF93E0913C24F0913D2403
:10279000848183FF08C08860848383E0838386EF1D
:1027A000809346248AC082FD02C084FF06C083E075
:1027B00083838FEF8093462480C086FF45C0ECE37F
:1027C000F4E2C081D181A281B38184819581149684
:1027D0002D913C911597821793076CF411969C01EB
:1027E0002F5F3F4F2093402430934124A80FB91FFF
:1027F0008C918F8362C080914224909143241896DB
:102800002D913C91199782179307C8F42091442485
:10281000222321F08E8181608E834FC016962D91E8
:102820003C911797AC014F5F5F4F40934224509308
:102830004324F901E80FF91F80818F833EC083E0B4
:102840008B831092462439C08823A4F5ECE3F4E28C
:10285000C081D181A281B3818681978118962D9103
:102860003C91199782179307F8F416964D915C9155
:1028700017979C012F5F3F4F2093422430934324AE
:10288000FA01E80FF91F4F81408318968D919C91B2
:1028900019972817390718F482E08B830EC087E058
:1028A0008B831092462409C083E08B8389EF809349
:1028B000462403C08BEF80934624DF91CF91089587
:1028C0001F920F920FB60F9211240BB60F922F93F7
:1028D0003F934F935F936F937F938F939F93AF93A8
:1028E000BF93EF93FF934EDFFF91EF91BF91AF91B5
:1028F0009F918F917F916F915F914F913F912F9118
:102900000F900BBE0F900FBE0F901F9018951F9247
:102910000F920FB60F9211240BB60F922F933F9385
:102920004F935F936F937F938F939F93AF93BF93D7
:10293000EF93FF9327DFFF91EF91BF91AF919F91AD
:102940008F917F916F915F914F913F912F910F9058
:102950000BBE0F900FBE0F901F901895CF93DF9373
:102960001F921F92CDB7DEB7811113C090917425CD
:10297000992379F090918026911101C0FFCF9FB7E4
:102980009A83F8942A81EFE7F6E29181915091833E
:102990002FBF882399F09091742591110FC09091C9
:1029A00080269F3F09F4FFCF9FB79983F894298130
:1029B000EFE7F6E291819F5F91832FBF80937425AB
:1029C0000F900F90DF91CF910895482F282F2F70EF
:1029D000822F90E0880F991F042E000C550B252F95
:1029E000221F2227221F30E0820F931F880F991F7A
:1029F000880F991F880F991F805C9A4D08950F9337
:102A0000E8ECF4E080818F7D808380818F7D8083FE
:102A1000E8E4F5E202E0059310924A2510924B2576
:102A200000E2069300E40693E0E4F5E200E4069396
:102A3000EDE8F6E21486158616861786128613864A
:102A4000109230250F9108950F9385E080933025E3
:102A5000E9E4F5E204E00593E1E4F5E204E005933E
:102A60000F9108950F9383E08093302510924A25AB
:102A700010924B25E8E4F5E202E006930F910895E9
:102A80000F9384E080933025E0E4F5E202E00693C2
:102A90000F910895E0919926F0919A26309709F0C8
:102AA00019950895FC018181E82FE7708E2F90E041
:102AB000FC013197E730F10530F48827E250FF4FF1
:102AC0008F4F0C947F2688E090E0089580E290E09C
:102AD000089580E490E0089580E890E0089580E013
:102AE00091E0089580E092E008958FEF93E00895DB
:102AF00080E190E00895282F2F7030E0A901440F65
:102B0000551F082E000C990B292F221F2227221F48
:102B100030E0240F351F22503109C901880F991F59
:102B2000880F991F880F991F820F931F88539B4D01
:102B300008951F93CF93DF93182F862F83708130D2
:102B400029F010F0D0E803C0D0E401C0D0EC40344C
:102B5000510509F465C058F440315105E9F040329F
:102B6000510509F45BC048305105C1F463C04115FB
:102B700081E0580709F458C028F44038510509F499
:102B800051C00CC0411582E0580709F44FC04F3FB7
:102B9000534009F44DC002C0C1E04DC08091DA231A
:102BA0009091DB23009711F12FE532E23F932F93B1
:102BB00025EC31E23F932F9321EA35E03F932F93A9
:102BC00023E02F9322EC2F932BEC31E23F932F93B2
:102BD0001F9221E02F939F938F930E94710B8DB7CB
:102BE0009EB70E968DBF9EBFC0E025C083E08F9339
:102BF00082EC8F938BEC91E29F938F9385EC91E223
:102C00009F938F9380E895E09F938F930E94C527B1
:102C10008DB79EB708968DBF9EBFFFCFC2E00BC099
:102C2000C3E009C0C4E007C0C5E005C0C6E003C0FA
:102C3000C7E001C0C0E0812FC8DEFC01118286E040
:102C40008083CD2BC183DF91CF911F9108950F9386
:102C5000CF93DF9380913025833019F41BDFCFDED3
:102C60009DC02091DA233091DB232115310519F124
:102C70008230D9F18FE592E29F938F9385EF91E2B5
:102C80009F938F9381EE93E09F938F9384E08F9334
:102C900081E48F938BEC91E29F938F931F9281E05D
:102CA0008F933F932F930E94710B8DB79EB70E9613
:102CB0008DBF9EBF1AC08230C1F084E08F9381E443
:102CC0008F938BEC91E29F938F9385EF91E29F938B
:102CD0008F9380EC93E09F938F930E94C527EDB76D
:102CE000FEB73896EDBFFEBFFFCFC0919726D091BB
:102CF000982620912C2530912D25C21BD30B49F508
:102D000080912E2590912F25820F931F80932E2541
:102D100090932F2520919326309194268217930724
:102D200021F080914724882311F0AADE37C08091DA
:102D30009B2690919C26009761F0FC0119958823B1
:102D400041F010922C2510922D25C0919726D091FC
:102D50009826C034D10528F010924724C0E4D0E072
:102D600003C081E080934724E4E3F5E2C68BD78B70
:102D7000209195263091962680912C2590912D2595
:102D8000280F391F208F318F8C0F9D1F80932C258A
:102D900090932D25E8E4F5E202E00693DF91CF91D0
:102DA0000F9108958F929F92AF92BF92CF92DF9230
:102DB000EF92FF920F931F93CF93DF93182F9BDE19
:102DC000EC01812F02DE7C016DDE5C0111230CF031
:102DD0004BC0F701268137818D819E81820F931F21
:102DE0008D839E832B813C818217930781F1281B61
:102DF000390B2115F4E03F0740F02FEF33E0C90114
:102E0000B5010E946B26281B390B888181FF08C001
:102E1000C901B5010E946B26892B21F090E003C007
:102E200090E001C091E0888190FB81F98883F701EF
:102E3000168217822283338329813A818D819E8174
:102E4000820F931F8483958302E00693A0C088813C
:102E500081FF8FC08D7F8883F701168217821282CF
:102E6000138202E0069393C0F701C280D380888169
:102E700082FF1FC08B819C81212F30E021503109BE
:102E80000024369527950794369527950794322F79
:102E9000202D285B3B4D89809A80ED81FE81B50114
:102EA0000E946B26AC01B901C4018E0F9F1F0E94C6
:102EB00080272D813E812C0D3D1D2D833E838B81EE
:102EC0009C818217930710F48D839E83F7012681DE
:102ED0003781C216D30609F04CC02D813E8182177E
:102EE000930709F446C0AC01421B530B9A0121150C
:102EF00054E0350758F02FEF33E0C901B5010E94C7
:102F00006B26F901E81BF90BCF0108C0C901B50117
:102F10000E946B26A901481B590BCA01F7011282B6
:102F200013828A159B05B0F4888184608883812F81
:102F300090E001970024969587950794969587953C
:102F40000794982F802D885B9B4D84839583A68260
:102F5000B7820BC049815A812D813E81240F351FD4
:102F6000F7012483358386839783F70102E0069374
:102F70000EC0888180FF0BC08E7F8883EF81F8852B
:102F8000309729F06D817E81412F80E01995DF9186
:102F9000CF911F910F91FF90EF90DF90CF90BF9056
:102FA000AF909F908F9008950F931F93CF93DF93CF
:102FB00080913025843019F46DDD21DDB7C020917A
:102FC000DA233091DB232115310519F18130D9F154
:102FD0008FE592E29F938F9380E292E29F938F938B
:102FE00081E093E09F938F9384E08F9386E78F93A4
:102FF0008BEC91E29F938F931F9281E08F933F938D
:103000002F930E94710B8DB79EB70E968DBF9EBFFA
:103010001AC08130C1F084E08F9386E78F938BECE8
:1030200091E29F938F9380E292E29F938F9380EE41
:1030300092E09F938F930E94C527EDB7FEB7389615
:10304000EDBFFEBFFFCF0091422510914325809137
:10305000972690919826C0912C25D0912D259801E6
:103060002C0F3D1F8217930718F48C010C1B1D0BAE
:103070008091952690919626A8016CEE74E28C0FB3
:103080009D1F0E948027C00FD11FC0932C25D09375
:103090002D250034110569F4209193263091942652
:1030A00080912E2590912F258C0F9D1F82179307BD
:1030B00080F0EDE8F6E2C287D38786859785009792
:1030C00031F0FC011995811102C0BEDC2FC0CADCB1
:1030D0002DC08091972690919826C817D90701F5A1
:1030E00080919B2690919C26009711F4ADDC1EC028
:1030F000FC011995811102C0A7DC18C020912E2572
:1031000030912F2580912C2590912D25820F931F92
:1031100080932E2590932F2510922C2510922D25EB
:10312000E0E4F5E202E0069300E20693DF91CF913E
:103130001F910F9108950F9380913025882329F0D6
:103140008350823008F4A6DC5ADC809142259091AD
:103150004325089709F041C088E0ECEEF4E2ADE8C1
:10316000B6E201900D928A95E1F7E8ECF4E08081F7
:10317000806280838081806280830E94480B8111FD
:1031800002C062DC2AC080918D2688236CF41092E4
:103190002E2510922F2510922C2510922D2582E09D
:1031A0008093302554DD19C0809193269091942608
:1031B000892B11F457DC11C010922E2510922F2567
:1031C00010922C2510922D2581E080933025E0E48B
:1031D000F5E202E0069300E206930F9108950F9343
:1031E0008091CC0480FF5BC081E08093CC04E0E45C
:1031F000F5E200E80693E8E4F5E200E80693809340
:10320000CA048091DA239091DB23009729F1209161
:10321000402524FD3DC02FE532E23F932F932CE45F
:1032200032E23F932F9329E134E03F932F9325E03F
:103230002F9322E12F932BEC31E23F932F931F9298
:1032400021E02F939F938F930E94710B8DB79EB7B0
:103250000E968DBF9EBF1CC08091402584FD18C076
:1032600085E08F9382E18F938BEC91E29F938F9314
:103270008CE492E29F938F9388EF93E09F938F93D8
:103280000E94C5278DB79EB708968DBF9EBFFFCF02
:10329000E0E4F5E200E106934EDF81E001C080E06A
:1032A0000F9108950F938091CC0481FD13C097DF97
:1032B000811110C080913025813011F4D3DB0AC018
:1032C000843041F4E9E4F5E204E00593E1E4F5E259
:1032D00004E005930F9108950F938091CC0481FD34
:1032E00013C07DDF811110C080913025823011F430
:1032F000C7DB0AC0833041F4E9E4F5E204E005935A
:10330000E1E4F5E204E005930F9108958091CB0488
:1033100082FF0AC084E08093CA048091482586FF1A
:1033200011C0C0DF81E008958091CB0481FF0CC003
:1033300082E08093CA048091402586FF07C0CCDFDD
:1033400081E0089581E0089580E0089581E0089586
:1033500080E008958093C30408958091C304089584
:103360008091702590917125089580E090E00895F6
:10337000EDE8F6E280879187628773870895982F3A
:103380009F7029F081E0933018F080E0089580E08C
:103390000895EF92FF920F931F93CF93DF93182F0F
:1033A000062F7A01C091DA23D091DB23209721F1F7
:1033B000E6DF81113CC08FE592E29F938F9380E618
:1033C00092E29F938F9389ED95E09F938F9382E094
:1033D0008F9387E58F938BEC91E29F938F931F924E
:1033E00081E08F93DF93CF930E94710B8DB79EB7CF
:1033F0000E968DBF9EBF1BC0C2DF811118C082E038
:103400008F9387E58F938BEC91E29F938F9380E668
:1034100092E29F938F9388EB95E09F938F930E9406
:10342000C5278DB79EB708968DBF9EBFFFCF812F52
:10343000CCDAEC018981807C89F4A701602F812F8F
:1034400078DB8981807C803C21F48981877087309A
:1034500039F089818062898381E003C080E001C006
:1034600081E0DF91CF911F910F91FF90EF90089530
:103470000F931F93CF93C82F0091DA231091DB2372
:103480000115110521F17BDF81113CC08FE592E22E
:103490009F938F9380E692E29F938F9381E395E0D1
:1034A0009F938F9382E08F9387E78F938BEC91E2CA
:1034B0009F938F931F9281E08F931F930F930E948E
:1034C000710B8DB79EB70E968DBF9EBF1BC057DF89
:1034D000811118C082E08F9387E78F938BEC91E284
:1034E0009F938F9380E692E29F938F9380E195E084
:1034F0009F938F930E94C527EDB7FEB73896EDBF17
:10350000FEBFFFCF8C2F61DAFC01818182FB88270F
:1035100080F9CF911F910F9108950F931F93CF932F
:10352000C82F0091DA231091DB230115110521F139
:1035300026DF81113CC08FE592E29F938F9380E656
:1035400092E29F938F9381EC94E09F938F9382E01C
:103550008F938DE88F938BEC91E29F938F931F92C3
:1035600081E08F931F930F930E94710B8DB79EB7CD
:103570000E968DBF9EBF1BC002DF811118C082E076
:103580008F938DE88F938BEC91E29F938F9380E6DE
:1035900092E29F938F9380EA94E09F938F930E948F
:1035A000C5278DB79EB708968DBF9EBFFFCF8C2FC6
:1035B0000CDAFC0101E00693818182FF0FC081815A
:1035C0008B7F81838C2F97DAFC01808180FF06C07E
:1035D0008E7F80830780F085E02D199581E0CF9163
:1035E0001F910F9108956F927F928F929F92AF9249
:1035F000BF92CF92DF92EF92FF920F931F93CF93E0
:10360000DF931F92CDB7DEB7D82EC62E3A015901EF
:10361000E090DA23F090DB23E114F10409F1AFDE4E
:10362000811136C08FE592E29F938F9380E692E2FC
:103630009F938F9389E894E09F938F9382E08F9379
:1036400087EA8F938BEC91E29F938F931F9281E097
:103650008F93FF92EF920E94710BCDBFDEBF18C017
:103660008EDE811115C082E08F9387EA8F938BECF9
:1036700091E29F938F9380E692E29F938F9388E6E7
:1036800094E09F938F930E94C527CDBFDEBFFFCFED
:103690008D2D31DA7C018D2D98D94C01FC01818171
:1036A000807C09F451C08181807C803C19F081814B
:1036B00082FD4CC08FB78983F8948981F70190818E
:1036C00090FF03C08FBF80E042C0F70190819160FE
:1036D00090838FBF61827282A382B4821582168228
:1036E00007831087C11005C0A114B10421F491E033
:1036F00003C091E001C090E0F701808190FB81F967
:103700008B7F8083DD2024F4F4011682178218C099
:10371000F4018181807C803C71F4C401C3D9BC0177
:10372000C5010E946B26892B31F0F70180818E7FC5
:10373000808380E00CC0F40112821382168217820B
:103740008D2D30DB81E003C080E001C080E00F9070
:10375000DF91CF911F910F91FF90EF90DF90CF906D
:10376000BF90AF909F908F907F906F900895EF9251
:10377000FF920F93CF93C82FE090DA23F090DB23D2
:10378000E114F10421F1FBDD81113CC08FE592E2EF
:103790009F938F9380E692E29F938F9381E594E0CD
:1037A0009F938F9382E08F938EED8F938BEC91E2BA
:1037B0009F938F931F9281E08F93FF92EF920E94CD
:1037C000710B8DB79EB70E968DBF9EBF1BC0D7DD08
:1037D000811118C082E08F938EED8F938BEC91E274
:1037E0009F938F9380E692E29F938F9380E394E080
:1037F0009F938F930E94C527ADB7BEB71896ADBFF4
:10380000BEBFFFCF8C2FE1D87C018C2F74D9DC0197
:10381000F70102E005938C9180FF18C08E7F8C9396
:103820001796ED91FC911897309781F0CC2334F4E2
:10383000D70116966D917C91179705C0D701129606
:103840006D917C9113974C2F81E01995CF910F9139
:10385000FF90EF9008951F920F920FB60F921124D0
:103860000BB60F922F933F934F935F936F937F937A
:103870008F939F93AF93BF93CF93EF93FF938091D9
:10388000CB04882334F480E88093CA040E94220B7E
:103890003DC03CDD81113AC08091CB0484FF23C040
:1038A00080E18093CA04C1E006C08C2F60DF8C2FBA
:1038B00080685DDFCF5FC330C0F30E94510A109271
:1038C000C30440E450E060E080E033D940E450E0DD
:1038D00060E080E82ED98CEE94E2809344259093AA
:1038E00045258DD813C08091CB0486FF06C080E4A7
:1038F0008093CA0480E032D809C08091CB0485FF50
:1039000005C080E28093CA0481E028D8FF91EF913E
:10391000CF91BF91AF919F918F917F916F915F9167
:103920004F913F912F910F900BBE0F900FBE0F90B4
:103930001F9018950F931F93CF93C82F0091DA23F0
:103940001091DB230115110521F119DD81113CC016
:103950008FE592E29F938F9380E692E29F938F93FD
:1039600089E695E09F938F9382E08F938DE68F9306
:103970008BEC91E29F938F931F9281E08F931F9323
:103980000F930E94710B8DB79EB70E968DBF9EBF91
:103990001BC0F5DC811118C082E08F938DE68F93F8
:1039A0008BEC91E29F938F9380E692E29F938F93AB
:1039B00088E495E09F938F930E94C527EDB7FEB7EB
:1039C0003896EDBFFEBFFFCF8C2FD1DE8C2F0E942B
:1039D000E514FC011182CF911F910F9108950F936F
:1039E0001F93CF93C82F0091DA231091DB23011589
:1039F000110521F1C4DC81113CC08FE592E29F9357
:103A00008F9380E692E29F938F9389EF94E09F9348
:103A10008F9382E08F9380E88F938BEC91E29F935A
:103A20008F931F9281E08F931F930F930E94710BCE
:103A30008DB79EB70E968DBF9EBF1BC0A0DC8111B7
:103A400018C082E08F9380E88F938BEC91E29F9374
:103A50008F9380E692E29F938F9388ED94E09F93FB
:103A60008F930E94C5278DB79EB708968DBF9EBFC6
:103A7000FFCF8C2F0E94E514FC019181946091830B
:103A80008C2F75DE81E0CF911F910F9108951F92C9
:103A90000F920FB60F9211240BB60F920F931F9334
:103AA0002F933F934F935F936F937F938F939F9346
:103AB000AF93BF93CF93EF93FF938091CC0481FD9D
:103AC00042C08DDB811102C18091DA239091DB230A
:103AD000009709F12FE532E23F932F9325EC31E275
:103AE0003F932F9329EA33E03F932F9323E02F93C3
:103AF0002BE62F932BEC31E23F932F931F9221E083
:103B00002F939F938F930E94710B8DB79EB70E9644
:103B10008DBF9EBF18C083E08F938BE68F938BEC95
:103B200091E29F938F9385EC91E29F938F9388E826
:103B300093E09F938F930E94C527EDB7FEB7389609
:103B4000EDBFFEBFFFCF82E08093CC048091C5041F
:103B50008195982F990FE0E4F5E2E91BF109808146
:103B600091818054954296958795969587959695DF
:103B70008795982F969580FF02C0C0E801C0C0E0ED
:103B8000C90F2091DA233091DB232115310531F162
:103B90008C2F8F7090E00397F4F18FE592E29F9362
:103BA0008F9384E792E29F938F9381E793E09F93B3
:103BB0008F9383E08F938AE78F938BEC91E29F93AF
:103BC0008F931F9281E08F933F932F930E94710BED
:103BD0008DB79EB70E968DBF9EBF1DC08C2F8F7068
:103BE00090E00397C4F083E08F938AE78F938BEC88
:103BF00091E29F938F9384E792E29F938F9380E566
:103C000093E09F938F930E94C527EDB7FEB7389638
:103C1000EDBFFEBFFFCF8C2F0E94E514FC01208179
:103C200025FF54C000E20693C11102C0BDD94EC0A9
:103C3000C03811F40CD84AC00091DA231091DB236C
:103C40000115110529F18C2F9ADB81113DC08FE5FB
:103C500092E29F938F9380E692E29F938F9389E302
:103C600093E09F938F9383E08F938CE88F938BECFB
:103C700091E29F938F931F9281E08F931F930F93F5
:103C80000E94710B8DB79EB70E968DBF9EBF1CC054
:103C90008C2F75DB811118C083E08F938CE88F9394
:103CA0008BEC91E29F938F9380E692E29F938F93A8
:103CB00088E193E09F938F930E94C527EDB7FEB7ED
:103CC0003896EDBFFEBFFFCF8C2F6CD8FF91EF91E0
:103CD000CF91BF91AF919F918F917F916F915F91A4
:103CE0004F913F912F911F910F910F900BBE0F900D
:103CF0000FBE0F901F901895CF92DF92EF92FF9218
:103D00000F931F93EDE9F6E28EE185830F2EF6EC1B
:103D1000CF2EF6E2DF2EF02DE12CF12C04EB16E293
:103D200021E030E042EA56E26FE976E2808191815B
:103D3000B0D71F910F91FF90EF90DF90CF90089533
:103D40009F92AF92BF92CF92DF92EF92FF920F932A
:103D50001F93CF93DF9382E1E2EAF6E2DF011D9247
:103D60008A95E9F70F2EF7ECAF2EF6E2BF2EF02D75
:103D70000F2EF2EA9F2EF02D25C0CDE9D6E29D82CE
:103D80000F2EF6ECCF2EF6E2DF2EF02D0F2EF3E005
:103D9000EF2EF12CF02D04EB16E221E030E042EAA8
:103DA00056E26FE976E28881998152D7888D90E05A
:103DB000982F88272F89822BF501819391935F019A
:103DC00093949394FDEAF915C0F6DF91CF911F917A
:103DD0000F91FF90EF90DF90CF90BF90AF909F90AA
:103DE0000895CF93DF93CDE9D6E220EA36E02A8327
:103DF0003B8321E02C838883998382E1E4EBF6E224
:103E0000DF01982F1D929A95E9F7E2EAF6E2DF01C9
:103E10001D928A95E9F719A68CE0E3EDF6E2DF0141
:103E20001D928A95E9F788E0EFEDF6E2DF011D9239
:103E30008A95E9F761DF83E0ADD3EA81FB818C816C
:103E400085837EDFDF91CF910895CF92DF92EF924D
:103E5000FF920F931F9382E1E2EAF6E2DF011D92E7
:103E60008A95E9F7EDE9F6E286E485830F2EF6EC14
:103E7000CF2EF6E2DF2EF02DE12CF12C04EB16E232
:103E800021E030E042EA56E26FE976E280819181FA
:103E90009CD51F910F91FF90EF90DF90CF900895E8
:103EA000CF92DF92EF92FF920F931F9382E1E2EAAB
:103EB000F6E2DF011D928A95E9F7EDE9F6E286E583
:103EC00085830F2EF6ECCF2EF6E2DF2EF02DE12CBF
:103ED000F12C04EB16E221E030E042EA56E26FE911
:103EE00076E28081918171D51F910F91FF90EF90C3
:103EF000DF90CF900895CF92DF92EF92FF920F93D1
:103F00001F9382E1E2EAF6E2DF011D928A95E9F76A
:103F1000EDE9F6E215820F2EF6ECCF2EF6E2DF2E5B
:103F2000F02D6894EE24E2F8F12C04EB16E221E087
:103F300030E042EA56E26FE976E28081918145D530
:103F40001F910F91FF90EF90DF90CF900895EDE9D2
:103F5000F6E242AD53AD64AD75AD82A993A9A0E080
:103F6000B0E0BA2FA92F982F88279A01AB01281B00
:103F7000390B4A0B5B0B2093DB263093DC264093F6
:103F8000DD265093DE26A4A9B5A9C1D6DC01CB015C
:103F9000072E77E1B695A795979587957A95D1F7EE
:103FA000702D8053984FAF4FBF4F8093DF26909373
:103FB000E026A093E126B093E22608952F923F9247
:103FC0004F925F926F927F928F929F92AF92BF9229
:103FD000CF92DF92EF92FF920F931F93CF93DF93D5
:103FE000CDB7DEB76997CDBFDEBF0F2EFDE92F2E0F
:103FF000F6E23F2EF02DF10184A595A58C0120E07D
:1040000030E040E050E0BA01898B1A8B2B8B3C8B5F
:104010004D8B5E8B6F8B788F282F312F40E050E0D7
:1040200060E070E080E090E001E1CCD62D833E833B
:104030004F835887862E972E8A87998740A951A942
:104040004090DB265090DC266090DD267090DE26C6
:1040500093018201330F000B102F980109831A83FB
:104060002B833C83A42CB52CC62CD72CE980FE2CAA
:104070000E2D1E2D242F352F40E050E060E070E023
:1040800080E090E04ED606E0B6D6A22EB32EC42E27
:10409000D52EE62EF72E082F192F2D813E814F8128
:1040A0005885682D792D8A859985C3D62D833E83C1
:1040B0004F83588769877A878B879C87F10182A510
:1040C00093A58C0120E030E040E050E0BA011A8B6B
:1040D0002B8B3C8B4D8B5E8B6F8B788F282F312FEA
:1040E00040E050E060E070E080E090E000E16AD6FF
:1040F0002D873E874F87588B862E972E898F998BD9
:1041000006A517A5A02EB12EC12CD12CE12CF12C87
:1041100000E010E0242D352D462D572D6981762F96
:10412000862F962FFED507E066D6A22EB32EC42E7C
:10413000D52EE62EF72E082F192F2D853E854F857B
:104140005889682D792D898D998973D6F10146A8F2
:1041500057A860AC71AC12012301A22CB32CC42C63
:10416000D52CE12CF12C00E010E0DBD505E143D6A5
:10417000AD80BE80CF80D884E984FA840B851C850D
:1041800061D60FE038D62093E3263093E42640939F
:10419000E5265093E6266996CDBFDEBFDF91CF912D
:1041A0001F910F91FF90EF90DF90CF90BF90AF9055
:1041B0009F908F907F906F905F904F903F902F9047
:1041C00008950F931F938091E72690E08830910522
:1041D00008F0B6C0FC018827EB5FFE4F8F4F8FC5FC
:1041E00034DE81E08093E726B8C08091C626813016
:1041F00009F0A8C0B9D16093E8267093E9268093AE
:10420000EA269093EB2682E08093E72681E0A5C022
:10421000ABD10091E8261091E9262091EA26309151
:10422000EB26DC01CB01801B910BA20BB30B899712
:10423000A105B10508F488C05EDE83E08093E7261F
:1042400080E08BC08091C626813009F07FC0EDE907
:10425000F6E2808D90E0A0E0B0E0BC015527442755
:10426000918D892F90E0A0E0B0E0BA2FA92F982F70
:104270008827842B952BA62BB72B228D822B86ABE0
:1042800097ABA0AFB1AF84E08093E72681E065C033
:1042900007DE85E08093E72681E05FC08091C62637
:1042A000813009F055C060D16093E8267093E9260B
:1042B0008093EA269093EB2686E08093E72681E0C0
:1042C0004CC052D10091E8261091E9262091EA26AF
:1042D0003091EB26DC01CB01801B910BA20BB30BC1
:1042E0008997A105B105B0F106DE87E08093E72646
:1042F00080E033C08091C626813071F5EDE9F6E2A9
:10430000808D90E0A0E0B0E0BC0155274427918D5E
:10431000892F90E0A0E0B0E0BA2FA92F982F88272E
:10432000842B952BA62BB72B228D822B82AF93AF9C
:10433000A4AFB5AF0CDE42DE1092E72682E00DC0DE
:1043400081E00BC081E009C081E007C081E005C0C9
:1043500081E003C081E001C081E01F910F910895C9
:104360004091DF265091E0266091E1267091E2268F
:10437000FC0140835183628373834091E326509113
:10438000E4266091E5267091E62644835583668392
:10439000778308951F920F920FB60F9211240BB6D8
:1043A0000F922F933F934F935F936F937F938F93CE
:1043B0009F93AF93BF93EF93FF938EEF98E286D3D3
:1043C000FF91EF91BF91AF919F918F917F916F91ED
:1043D0005F914F913F912F910F900BBE0F900FBEA9
:1043E0000F901F9018958DD080937F2590938025F6
:1043F0008BD080937E250895B7D060937A257093F3
:104400007B2580937C2590937D2540917A25509142
:104410007B2560917C2570917D25809176259091FA
:104420007725A0917825B0917925481759076A0713
:104430007B0711F380917A2590917B25A0917C25B3
:10444000B0917D258093762590937725A09378254C
:10445000B0937925109275254CC0F0E0EE0FFF1F48
:10446000EE0FFF1FEE0FFF1F80917F25909180259B
:10447000E80FF91F808191810097B9F040917A256A
:1044800050917B2560917C2570917D25028113815F
:1044900024813581401B510B620B730BA0E0B0E00F
:1044A000481759076A077B07F8F00680F781E02D67
:1044B0001995E0917525F0E0EE0FFF1FEE0FFF1F3D
:1044C000EE0FFF1F80917F2590918025E80FF91F47
:1044D00080917A2590917B25A0917C25B0917D25B6
:1044E00082839383A483B583809175258F5F8093A6
:1044F0007525E091752580917E25E81708F4ADCFEC
:104500007BCF82EC90E2089582E00895809181252E
:1045100090918225A0918325B09184250196A11DBB
:10452000B11D8093812590938225A0938325B0931C
:104530008425089580E098E00E94051366E872E201
:1045400080E098E00E948413E0E0F8E08181887FB9
:10455000818380E099E186A397A386818C7F8683FF
:104560008681816086830895CF93DF931F92CDB7B4
:10457000DEB78FB78983F894298160918125709186
:10458000822580918325909184252FBF0F90DF9104
:10459000CF910895CF92DF92EF92FF920F931F93E6
:1045A000CF93DF931F921F92CDB7DEB79FB79A8349
:1045B000F8949A81C0908125D0908225E09083253F
:1045C000F09084259FBF90E08C01000F111F000F19
:1045D000111F080F191F012E000C220B330B9FB760
:1045E0009983F89499814091812550918225609119
:1045F0008325709184259FBF4C195D096E097F0941
:10460000401751076207730750F30F900F90DF9127
:10461000CF911F910F91FF90EF90DF90CF90089571
:1046200087E08093A2000E94E603789483DFE0E0B5
:10463000F8E08081807F816080830E941A03D3DE4E
:10464000DBDE1092852510C0F0E0EE0FFF1FE9576A
:10465000FA4D0190F081E02D309709F01995809185
:1046600085258F5F80938525E0918525809186251E
:10467000E81750F308959C0190918625943180F4B9
:10468000E0918625F0E0EE0FFF1FE957FA4D2083F9
:104690003183809186258F5F8093862580E0089501
:1046A00081E00895AC0190E00CC0E92FF0E0EE0F3E
:1046B000FF1FE957FA4D208131812417350739F062
:1046C0009F5F20918625921780F380E0089581E016
:1046D00008951F920F920FB60F9211240BB60F92EE
:1046E0002F933F934F935F936F937F938F939F93FA
:1046F000AF93BF93EF93FF938FEA99E2E7D1FF91D6
:10470000EF91BF91AF919F918F917F916F915F9149
:104710004F913F912F910F900BBE0F900FBE0F90B6
:104720001F90189560E184E00E945804E0EAF9E0E7
:1047300017828FE0868380E1838388E1848380EC25
:10474000858325EF33E240E656E060EA79E088E6CB
:104750009AE267D088E69AE234D088E69AE241CBC2
:1047600008952FDD823019F480E69AE2F9CD08959C
:104770001F920F920FB60F9211240BB60F922F9328
:104780003F934F935F936F937F938F939F93AF93D9
:10479000BF93EF93FF9388E69AE298D1FF91EF9150
:1047A000BF91AF919F918F917F916F915F914F9149
:1047B0003F912F910F900BBE0F900FBE0F901F9047
:1047C00018959C019091AF25933068F4E92FF0E0A3
:1047D000EE0FFF1FE75EF44D208331839F5F9093C0
:1047E000AF2581E0089580E008951F93CF93DF9374
:1047F000C091192BD0911A2B10E00DC0209741F0D9
:10480000FE01E055FF4F8081811102C0CE011AD117
:104810001F5FCF54DF4F133088F3DF91CF911F918B
:104820000895CF93DF93E901DC016D937C93119799
:1048300012964D935C931397FC0134962AEADF019C
:104840001D922A95E9F7E655FF4F108231961082A6
:10485000CE0128DF811106C0CE010DDF813021F0AD
:1048600081E003C081E001C080E0DF91CF91089535
:104870006F927F928F929F92AF92BF92CF92DF9270
:10488000EF92FF920F931F93CF93DF93FC01E155BB
:10489000FF4FB080DC01A255BF4FAC91F081E1E049
:1048A000AF1301C0E0E0DE2FDB0DDA3009F4D0E019
:1048B000ED2FF0E0C1E1CE9FD001CF9FB00D1124CC
:1048C000A80FB91F5396AC91A13051F4DC01A1554A
:1048D000BF4FCC911197AC91CA1721F0C1E003C032
:1048E000C1E001C0C0E0C13009F05FC0DB016D90E4
:1048F0007C900F2EF1E18F2EF02D8E9ED0018F9E99
:10490000B00D11244D01880E991ED40114966D929C
:104910007C921597DB0112966C91D40116966C93DC
:10492000AA2021F0D40154961C920BC061E16E9F25
:10493000D0016F9FB00D1124A80FB91F61E05496EC
:104940006C9361E16E9FD0016F9FB00D1124A80F91
:10495000B91F17964D935C93189719962D933C9316
:104960001A971B961C921B971C960D931C931D97D0
:104970001E96ED92FC921F9750961C92509731967E
:104980006E9F90016F9F300D1124FC01E20FF31F09
:10499000C082D1820190F081E02D108221E05396F7
:1049A0002C93FC01E155FF4FD0838C2FDF91CF91E9
:1049B0001F910F91FF90EF90DF90CF90BF90AF903D
:1049C0009F908F907F906F900895AF92CF92DF92DB
:1049D000EF92FF920F931F93A12C4ADF1F910F912B
:1049E000FF90EF90DF90CF90AF900895FC01E255DB
:1049F000FF4F208131963081231719F041E0420F9B
:104A000001C0422F4A3008F040E030E051E1529FAF
:104A1000F001539FF00D1124E80FF91F538955231E
:104A200079F051E1529FF001539FF00D1124E80FEE
:104A3000F91F138AFC01E255FF4F408381E008957E
:104A400080E00895CF93DF93FC01E255FF4F208172
:104A500030E041E1429FF001439FF00D1124E80F47
:104A6000F91F4389442371F1B9016F5F7F4F41E121
:104A7000469FF001479FF00D1124E80FF91F0190A8
:104A8000F081E02D1082429FF001439FF00D112430
:104A9000E80FF91F108A1386DC01A055BF4F21E0F3
:104AA0002C93A481B581268116962C93EC01A881C4
:104AB000B981C781D08588818C9383858F5F8387F7
:104AC00081E001C080E0DF91CF9108950F931F93A3
:104AD000CF93DF93FC01E255FF4F208130E041E1AD
:104AE000429FF001439FF00D1124E80FF91FA185AB
:104AF000B28566857785408950E046175707C8F428
:104B000041E1429FF001439FF00D1124E80FF91F8E
:104B1000C485D58540898E01040F111DEC014881A3
:104B20005981EA014881E801488340894F5F408B01
:104B300004C0EC01E881F981408141E1429FF0012C
:104B4000439FF00D1124E80FF91F438550E04A17E9
:104B50005B07B8F4FC0140815181C1E1C29FF001C3
:104B6000C39FF00D1124E80FF91FC781D08513856D
:104B7000C10FD11D1881EA01188343854F5F438718
:104B800011C041E1429FF001439FF00D1124E80F55
:104B9000F91F408950E04617570720F4EC01E881DF
:104BA000F981108241E1429FF001439FF00D1124F1
:104BB000E80FF91F438550E0C1E04A175B0708F092
:104BC000C0E041E1429FF001439FF00D1124E80F46
:104BD000F91F408950E0E1E04617570708F0E0E090
:104BE000C11131C0E1112FC041E1429FF001439F4B
:104BF000F00D1124E80FF91F4489442369F041E1C5
:104C0000429FF001439FF00D1124E80FF91FA4818A
:104C1000B581268115962C93FC01E055FF4F10823B
:104C20003297208130E02F5F3F4F41E1429FF001FA
:104C3000439FF00D1124E80FF91F0190F081E02D42
:104C400021E02083D3DEDF91CF911F910F91089552
:104C50008F929F92AF92CF92DF92EF92FF920F933B
:104C60001F93CF93DF934C01E601A12C01DEC40119
:104C7000E9DE00C088818130E9F7DF91CF911F9193
:104C80000F91FF90EF90DF90CF90AF909F908F901B
:104C900008958F929F92AF92CF92DF92EF92FF9200
:104CA0000F931F93CF93DF934C01E601AA24A394A3
:104CB000DFDDC401C7DE00C088818130E9F7DF9104
:104CC000CF911F910F91FF90EF90DF90CF90AF9019
:104CD0009F908F900895AA1BBB1B51E107C0AA1F8C
:104CE000BB1FA617B70710F0A61BB70B881F991F8D
:104CF0005A95A9F780959095BC01CD010895EE0FC6
:104D0000FF1F881F8BBF0790F691E02D1994A3D049
:104D1000A59F900DB49F900DA49F800D911D11240F
:104D20000895DF93CF931F930F939A9DF02D219FAA
:104D3000F00D8B9DF00D8A9DE02DF10D039FF00D80
:104D4000029FE00DF11D4E9DE00DF11D5E9DF00DE9
:104D50004F9DF00D7F936F93BF92AF925F934F93F0
:104D6000D50179D08B01AC01D70175D0EB01E80FEB
:104D7000F91FD6011FD02F913F91D6016CD0C60FDD
:104D8000D71FE81FF91FAF91BF9114D02F913F910A
:104D900062D0C60FD71FE81FF91FD6015CD0E60FFF
:104DA000F71F9801BE01CF0111240F911F91CF91E0
:104DB000DF91089550D0460F571FC81FD91F08F420
:104DC000319608950F93083090F0982F872F762F03
:104DD000652F542F432F322F22270850F4CF220F54
:104DE000331F441F551F661F771F881F991F0A9581
:104DF000B2F70F91089597FB10F8169400080F93DF
:104E0000083098F00850232F342F452F562F672F46
:104E1000782F892F902DF4CF0594979587957795C6
:104E2000679557954795379527950A95AAF70F9156
:104E300008952A0D3B1D4C1D5D1D6E1D7F1D801F9D
:104E4000911F08952A193B094C095D096E097F09D4
:104E5000800B910B0895A29FB001B39FC001A39F47
:104E6000700D811D1124911DB29F700D811D1124A3
:104E7000911D0895DC012D923D924D925D926D92AF
:104E80007D928D929D92AD92BD92CD92DD92ED92EA
:104E9000FD920D931D93CD93DD930F90FF91EF91B4
:104EA0008DB78D938EB78D938FB78D93ED93FD93C3
:104EB000882799270D9220C0DC01CB018130910514
:104EC000811D2D903D904D905D906D907D908D90C9
:104ED0009D90AD90BD90CD90DD90ED90FD900D91A9
:104EE0001D91CD91DD91ED91FD910D900FBEEDBF26
:104EF000FEBFED91FD910D90EF93FF930F920895FA
:104F0000FB01DC0102C001900D9241505040D8F7E6
:104F100008950F931F93CF93DF93FB01238121FD0E
:104F200003C08FEF9FEF2CC022FF16C04681578130
:104F3000248135814217530744F4A081B1819D013A
:104F40002F5F3F4F208331838C93268137812F5FE2
:104F50003F4F2683378314C08B01EC01FB01008493
:104F6000F185E02D1995892BE1F6D80116968D91E2
:104F70009C911797019616968D939C931797CE0147
:104F8000DF91CF911F910F9108950F931F93CF93AE
:104F9000DF93CDB7DEB7AE01485F5F4FDA016D91A9
:104FA0007D91AD010FE11BE2F80182819381DC016B
:104FB00013962C911397286013962C931BD0D8012D
:104FC0001296ED91FC9113972381277F2383DF9124
:104FD000CF911F910F910895CF93DF93EC018B81B7
:104FE00088608B83CE0106D02B81277F2B83DF91B6
:104FF000CF9108952F923F924F925F926F927F923E
:105000008F929F92AF92BF92CF92DF92EF92FF92D8
:105010000F931F93CF93DF93CDB7DEB72B97CDBF01
:10502000DEBF6C017B018A01FC011682178283813D
:1050300081FFBFC1CE0101963C01F6019381F701CA
:1050400093FD859193FF81917F01882309F4ADC180
:10505000853239F493FD859193FF81917F018532EB
:1050600021F4B60190E055DFE8CF912C212C312CB2
:10507000FFE1F315D8F08B3279F038F4803279F013
:105080008332A1F4232D20611DC08D3261F0803365
:1050900069F4232D216016C0832D8260382EE32D04
:1050A000E4603E2E2AC0F32DF8601DC037FC2DC0F1
:1050B00020ED280F2A3040F08E32B9F436FC75C14D
:1050C000232D2064322E19C036FE06C08AE0989E39
:1050D000200D1124922E11C0EAE02E9E200D1124E5
:1050E000222EF32DF0623F2E08C08C3621F4832D42
:1050F0008068382E02C0883641F4F70193FD85910F
:1051000093FF81917F018111B3CF982F9F7D95549B
:10511000933028F40C5F1F4F9FE399830DC08336B3
:1051200031F0833771F0833509F055C020C0F801A4
:10513000808189830E5F1F4F88248394912C5301B3
:1051400012C02801F2E04F0E511CF801A080B1807E
:1051500036FE03C0692D70E002C06FEF7FEFC5011E
:105160004BD14C018201F32DFF773F2E15C0280152
:1051700022E0420E511CF801A080B18036FE03C02F
:10518000692D70E002C06FEF7FEFC5012AD14C019D
:10519000F32DF0683F2E820133FC19C0822D90E080
:1051A00088169906A0F4B60180E290E0B2DE2A9457
:1051B000F5CFF50137FC859137FE81915F01B6018E
:1051C00090E0A7DE21102A9421E0821A9108811430
:1051D000910479F7E1C0843611F0893639F5F80188
:1051E00037FE07C060817181828193810C5F1F4F00
:1051F00008C060817181072E000C880B990B0E5F2F
:105200001F4FF32DFF763F2E97FF09C09095809595
:10521000709561957F4F8F4F9F4FF0683F2E2AE02A
:1052200030E0A301F4D0882E861844C0853731F4CD
:10523000232D2F7EB22E2AE030E025C0932D997FBA
:10524000B92E8F36C1F018F4883579F0AEC08037AA
:1052500019F0883721F0A9C0E92FE061BE2EB4FE15
:105260000DC0FB2DF460BF2E09C034FE0AC0292FEB
:105270002660B22E06C028E030E005C020E130E014
:1052800002C020E132E0F801B7FE07C06081718101
:10529000828193810C5F1F4F06C06081718180E025
:1052A00090E00E5F1F4FA301B2D0882E8618FB2D11
:1052B000FF773F2E36FE0DC0232D2E7FA22E8914A0
:1052C00058F434FE0BC032FC09C0832D8E7EA82E0C
:1052D00005C0B82CA32C03C0B82C01C0B92CA4FE67
:1052E0000FC0FE01E80DF11D8081803321F49A2D5D
:1052F000997EA92E09C0A2FE06C0B394B39404C03F
:105300008A2D867809F0B394A3FC10C0A0FE06C0D5
:10531000B21480F4280C922C9B180DC0B21458F4CF
:10532000B60180E290E0F5DDB394F8CFB21418F442
:105330002B1802C0982C212CA4FE0FC0B60180E3CC
:1053400090E0E7DDA2FE16C0A1FC03C088E790E074
:1053500002C088E590E0B6010CC08A2D867851F035
:10536000A1FE02C08BE201C080E2A7FC8DE2B60183
:1053700090E0CFDD891430F4B60180E390E0C9DD20
:105380009A94F8CF8A94F301E80DF11D8081B6015B
:1053900090E0BFDD8110F6CF222009F44ECEB60199
:1053A00080E290E0B6DD2A94F7CFF60186819781FE
:1053B00002C08FEF9FEF2B96CDBFDEBFDF91CF9165
:1053C0001F910F91FF90EF90DF90CF90BF90AF9023
:1053D0009F908F907F906F905F904F903F902F9015
:1053E0000895FC010590615070400110D8F7809538
:1053F00090958E0F9F1F0895FC01615070400190A1
:105400000110D8F7809590958E0F9F1F0895FA018F
:10541000AA27283051F1203181F1E8946F936E7FF3
:105420006E5F7F4F8F4F9F4FAF4FB1E03ED0B4E0E4
:105430003CD0670F781F891F9A1FA11D680F791F25
:105440008A1F911DA11D6A0F711D811D911DA11D36
:1054500020D009F468943F912AE0269F1124301946
:10546000305D3193DEF6CF010895462F4770405DE1
:105470004193B3E00FD0C9F7F6CF462F4F70405D90
:105480004A3318F0495D31FD4052419302D0A9F7EB
:10549000EACFB4E0A6959795879577956795BA95E5
:1054A000C9F700976105710508959B01AC010A2EAB
:1054B00006945795479537952795BA95C9F7620F82
:0E54C000731F841F951FA01D0895F894FFCF41
:1054CE00E40623066E047004D505DD04D8057404C5
:1054DE007004000066201A20000022201E200A20E0
:1054EE00002009024300020100C03209040000013D
:1054FE000202010005240010010424020205240604
:10550E000001052401030107058203400010090470
:10551E000100020A00000007058102400000070595
:10552E000202400000001201000202000040EB03E4
:10553E00042400010102030100030000000000002A
:10554E00000000000000000000000000000000004D
:10555E000000000000000000000000004B61726DB2
:10556E00616E446576426F6172640041494141202B
:10557E004E6F7274686561737465726E0000040319
:10558E0009040A0000000000B12300000000000022
:10559E002123434C4B2E4354524C203D3D20434F30
:1055AE004E4649475F535953434C4B5F534F5552E9
:1055BE004345002E2E2F7372632F4153462F636F78
:1055CE006D6D6F6E2F73657276696365732F636C85
:1055DE006F636B2F786D6567612F737973636C6B77
:1055EE002E6300286672657175656E6379203D3D88
:1055FE00203629207C7C20286672657175656E6365
:10560E0079203D3D20343829007564695F636463F9
:10561E005F6E625F636F6D6D5F656E61626C656418
:10562E0020213D2030002E2E2F7372632F415346C2
:10563E002F636F6D6D6F6E2F736572766963657311
:10564E002F7573622F636C6173732F6364632F64A2
:10565E0065766963652F7564695F6364632E6300A5
:10566E007564695F6364635F6E625F646174615FDA
:10567E00656E61626C656420213D20300031322EF2
:10568E002E2E45460066616C7365002E2E2F7372AA
:10569E00632F4153462F786D6567612F647269766B
:1056AE006572732F7573622F7573625F64657669A9
:1056BE0063652E63007564645F65705F636F6E74FF
:1056CE00726F6C5F7374617465203D3D2055444468
:1056DE005F45504354524C5F444154415F494E0024
:1056EE007564645F65705F636F6E74726F6C5F7309
:1056FE0074617465203D3D205544445F45504354CC
:10570E00524C5F444154415F4F5554007564645F81
:10571E00636F6E74726F6C5F736574757028290099
:10572E007564645F65705F69735F76616C69642828
:10573E00657029005553425F4445564943455F4DB8
:10574E0041585F4550203E3D20286570202620554B
:10575E0053425F45505F414444525F4D41534B2984
:02576E00000039
:00000001FF
